S01D00006C65647374726970655F646576656C6F706D656E742E7372656339
S11300000C9434000C9451000C9451000C94510045
S11300100C9451000C9451000C9451000C94510018
S11300200C9451000C9451000C9451000C94510008
S11300300C9451000C9451000C9451000C945100F8
S11300400C9451000C94B0000C9451000C94510089
S11300500C9451000C9451000C9451000C945100D8
S11300600C9451000C94510011241FBECFEFD8E022
S1130070DEBFCDBF11E0A0E0B1E0EAE6F7E002C0E8
S113008005900D92AA31B107D9F721E0AAE1B1E0B8
S113009001C01D92A438B207E1F70E94DE010C945E
S11300A0B3030C9400000895E4E6F0E080818B7FB4
S11300B0808308958CB580648CBD08959CB59F7D24
S11300C09CBD2CB530E2839FC0011124822B8CBDD2
S11300D008959CB59F7E9CBD9CB540E1849F900192
S11300E01124292B2CBD813031F484B18C6284B964
S11300F024982A980895811104C084B1837D84B919
S1130100249A08959CB5977F9CBD2CB538E0839FB5
S1130110C0011124822B8CBD08959CB59B7F9CBD8E
S11301202CB534E0839FC0011124822B8CBD08952B
S11301309CB59C7F9CBD9CB5282F2370922B9CBDA5
S11301409DB586958695892B8DBD08958EBD0DB47C
S113015007FEFDCF8EB508958CB58F778CBD0895BD
S11301601F920F920FB60F9211242F933F934F9328
S11301705F936F937F938F939F93AF93BF93EF930B
S1130180FF93E0910001F09101010995FF91EF9136
S1130190BF91AF919F918F917F916F915F914F919B
S11301A03F912F910F900FBE0F901F90189580E0F4
S11301B090E00E94A60080E090E00E94A60080E00B
S11301C090E00E94A60080E090E00E94A6000895BE
S11301D08FEF90E00E94A6008FEF90E00E94A600AF
S11301E08FEF90E00E94A6008FEF90E00E94A6009F
S11301F008950F931F93CF93DF930E94D700CAE112
S1130200D1E002E811E08881E0918201F09183015C
S1130210806E0995E0918201F09183018B810995AB
S1130220E0918201F09183018A810995E091820134
S1130230F0918301898109952496C017D10719F794
S11302400E94E800DF91CF911F910F9108958823B8
S113025001F140917E0150917F0160918001709184
S11302608101EEE7F1E02AE131E0B291A2919291AD
S1130270829184839583A683B783E217F307A9F752
S113028040931A0150931B0160931C0170931D014C
S1130290089540911A0150911B0160911C017091C5
S11302A01D01EAE1F1E02EE731E084819581A68128
S11302B0B78181939193A193B193E217F307A9F7BF
S11302C040937E0150937F0160938001709381017C
S11302D0089590938301809382010895CF92DF92D1
S11302E0EF92FF920F931F93CF93DF93162FC72E96
S11302F0D82E092F0E94D700CAE1D1E00F2EF2E8D0
S1130300EF2EF1E0FF2EF02D1883C982DA820B83E1
S1130310E0918201F0918301812F0995E09182019E
S1130320F09183018B810995E0918201F091830121
S11303308A810995E0918201F0918301898109956F
S11303402496CE15DF0501F70E94E800DF91CF91D6
S11303501F910F91FF90EF90DF90CF900895762F2B
S1130360922F682F606E842F0E946E0108958B3146
S113037068F4406EE82FF0E0EE0FFF1FEE0FFF1F52
S1130380E65EFE4F408351836283738308950E9427
S1130390F90008951F93CF93DF93182FD62F662368
S11303A039F0C0E0812F0E942701CF5FDC13FACF20
S11303B00E94F900DF91CF911F9108950E9454008B
S11303C00E94AC0081E00E94690085E00E949800D0
S11303D080E00E945E0080E00E94820080E00E9433
S11303E08D000E945A0086EA90E00E94690120E094
S11303F040E060E080E00E94AF014091160150911E
S11304001701609118017091190180E00E94B701F1
S113041040911601509117016091180170911901D2
S113042081E00E94B701409116015091170160913B
S113043018017091190182E00E94B70140911601E0
S113044050911701609118017091190183E00E9485
S1130450B70140910E0150910F016091100170910C
S113046011018AE00E94B70140910E0150910F01E1
S113047060911001709111018BE00E94B7014091CD
S11304800E0150910F0160911001709111018CE0E7
S11304900E94B70140910E0150910F01609110012B
S11304A0709111018DE00E94B701409112015091A9
S11304B01301609114017091150184E10E94B70148
S11304C04091120150911301609114017091150132
S11304D085E10E94B701409112015091130160918E
S11304E014017091150186E10E94B7014091120137
S11304F050911301609114017091150187E10E94DC
S1130500B7010E94C701D1E0C0E0DD2309F491C026
S113051061E081E00E94CA01CF5FC13E09F019C1C8
S113052040911601509117016091180170911901C1
S113053080E00E94B701409116015091170160912B
S113054018017091190181E00E94B70140911601D0
S113055050911701609118017091190182E00E9475
S1130560B7014091160150911701609118017091E3
S1130570190183E00E94B70140910E0150910F01CF
S113058060911001709111018AE00E94B7014091BD
S11305900E0150910F0160911001709111018BE0D7
S11305A00E94B70140910E0150910F01609110011A
S11305B0709111018CE00E94B70140910E0150919D
S11305C00F0160911001709111018DE00E94B7013B
S11305D04091120150911301609114017091150121
S11305E084E10E94B701409112015091130160917E
S11305F014017091150185E10E94B7014091120127
S113060050911301609114017091150186E10E94CB
S1130610B70140911201509113016091140170913E
S1130620150187E10E94B7010E94C701D0E0C0E034
S113063090C061E080E00E94CA01CF5FC13E09F032
S113064088C040910A0150910B0160910C01709196
S11306500D0180E00E94B70140910A0150910B0105
S113066060910C0170910D0181E00E94B7014091ED
S11306700A0150910B0160910C0170910D0182E00F
S11306800E94B70140910A0150910B0160910C0145
S113069070910D0183E00E94B701409106015091D1
S11306A0070160910801709109018AE00E94B70175
S11306B04091060150910701609108017091090170
S11306C08BE00E94B70140910601509107016091AF
S11306D00801709109018CE00E94B7014091060164
S11306E05091070160910801709109018DE00E9409
S11306F0B70140910201509103016091040170918E
S1130700050184E10E94B701409102015091030167
S1130710609104017091050185E10E94B701409147
S1130720020150910301609104017091050186E179
S11307300E94B701409102015091030160910401AC
S11307407091050187E10E94B7010E94C701D1E0C1
S1130750C0E02FEF89EF90E0215080409040E1F716
S10D076000C00000D2CEF894FFCFD1
S113076A5300FFFFFFFFFFFFFFFFFFFFFFFFFF0035
S10D077A00FFFF00FF00FFFF000076
S9030000FC
